:1000000009C021C020C088C01EC01DC01CC01BC0AC
:100010001AC019C011241FBECFE9CDBF10E0A0E661
:10002000B0E0E8E3F3E002C005900D92A037B1071D
:10003000D9F710E0A0E7B0E001C01D92A837B107E2
:10004000E1F73BD177C1DCCFDF93CF9300D0CDB7C1
:10005000DEB780916000882F90E0FC01EC59FF4FE3
:1000600080818093760080916100882F90E0FC0170
:10007000EC59FF4F8081809377001A8244C0198227
:100080003CC08A81882F90E0FC01EA58FF4F8081B4
:10009000882F90E081709070009741F4A8E3B0E061
:1000A000E8E3F0E08081877F8C9307C0A8E3B0E0AD
:1000B000E8E3F0E0808188608C938A81282F30E02B
:1000C0008A81882F90E0FC01EA58FF4F8081869555
:1000D000F901EA58FF4F8083A8E3B0E0E8E3F0E0DD
:1000E00080818F7E8C93A8E3B0E0E8E3F0E080812C
:1000F00080618C9389818F5F89838981883008F240
:100100008A818F5F8A838A81823008F4B8CF0F900A
:100110000F90CF91DF9108951F920F920FB60F921B
:1001200011242F933F934F935F936F937F938F93FC
:100130009F93AF93BF93EF93FF93DF93CF93CDB78D
:10014000DEB7E6E3F0E08081882F90E08170907068
:10015000982F81E089278823B9F080916100882356
:1001600031F0809161008150809361000CC08091DA
:100170006000882341F0809160008150809360008E
:1001800089E08093610060DFE6E3F0E08081882F02
:1001900090E0827090700097B1F480916100893096
:1001A00031F0809161008F5F809361000BC080917E
:1001B0006000893039F0809160008F5F809360002B
:1001C0001092610041DF8091700090917100843243
:1001D000910568F08091730090917400019690935E
:1001E00074008093730010927100109270008091DF
:1001F000700090917100019690937100809370004F
:1002000080916000282F30E0C901880F991F880F66
:10021000991F820F931F880F991F982F809161005B
:10022000890F8093750080917500882F90E0209150
:10023000620030916300B90157D024E630E0B90183
:1002400065D0CB019C01809173009091740082175E
:10025000930738F0A8E3B0E0E8E3F0E08081846041
:100260008C9380916200909163009C0121503040FA
:1002700080917300909174008217930758F0109248
:10028000740010927300A8E3B0E0E8E3F0E080812E
:100290008B7F8C93CF91DF91FF91EF91BF91AF91C5
:1002A0009F918F917F916F915F914F913F912F918E
:1002B0000F900FBE0F901F901895DF93CF93CDB77F
:1002C000DEB7E7E3F0E08CE18083E8E3F0E087E18C
:1002D0008083E3E5F0E085E08083E9E5F0E082E01B
:1002E00080837894B1DEFFCF5527002480FF02C0C1
:1002F000060E571F660F771F6115710521F0969541
:100300008795009799F7952F802D0895AA1BBB1B01
:1003100051E107C0AA1FBB1FA617B70710F0A61B05
:10032000B70B881F991F5A95A9F780959095BC0126
:08033000CD010895F894FFCF00
:1003380005003C0011D73292D49818D310900000D1
:00000001FF
